:0400000007EF00F016
:0A0008004D82C6ED0AF0A4EF0EF0E1
:100800000020202020202076302E31202020202083
:1008100020002020486946692020507265616D7073
:100820002020002A2A2A4445425547204D4F44455E
:100830002A2A2A00494E56414C49442053544154D7
:100840004500526561722042616C616E63650053C0
:10085000657475702E2E2E0043656E74726500529D
:09086000656172004C4645000080
:10086A00000E0001976F000E3B6E000E406E000EE8
:10087A003F6E000E816E000E8A6E000E936E000EA1
:10088A006E6F800E606F800E616F800E626F800ED9
:10089A00636F800E646F800E656F800E666F050E43
:1008AA00676F050E686F050E696F050E6A6F050E94
:1008BA006B6F050E6C6F050E6D6F14EC10F0AFECDC
:1008CA000FF073EC0FF0F9EC0FF0F28E6BEC09F00D
:1008DA004AEC08F0BEEC0FF0DCEC0FF0CDEC0FF0B8
:1008EA00E9EC0EF026EC0FF0000E146E640E136E97
:1008FA00EBEC0FF03CEC10F048EC0AF00B0AD8A431
:10090A0002D0010E396E030E146EE80E136EEBEC74
:10091A000FF03950D8B46CD23AEC10F0000E226EB7
:10092A00010E216E000E246E020E236E42EC0CF0B4
:10093A00230E2C6E080E2D6E91EC0BF059D2DCECC6
:10094A000FF03CEC10F032EC10F030EC10F034EC1C
:10095A0010F036EC10F022EC10F028EC10F0EBEC72
:10096A000BF0000E406E000E3F6E3FC013F0405079
:10097A0075EC0DF0010E36D0A60EE82EFED700F06B
:10098A0000F089EC0FF0E806D8A432D2020E2AD081
:10099A0038EC10F03AEC10F0000E0FEC0DF0EBEC26
:1009AA000BF0800E406E800E3F6E3FC013F0405039
:1009BA0075EC0DF08F0E216E000E226E40501DEC6C
:1009CA0007F0000E226E0A0E216E000E246E020E31
:1009DA00236E42EC0CF08F0E2C6E000E2D6E91ECF5
:1009EA000BF0040E386E04D2A60EE82EFED700F0E5
:1009FA0000F089EC0FF00001976F7DD0000E386E81
:100A0A009BD0000E0FEC0DF0000E00016E6F58EC3B
:100A1A000EF0EBEC0BF058EC0EF08ED0010E0FEC52
:100A2A000DF0010E00016E6F58EC0EF0EBEC0BF0BE
:100A3A0058EC0EF081D0020E0FEC0DF0020E000100
:100A4A006E6F58EC0EF0EBEC0BF058EC0EF074D025
:100A5A00030E0FEC0DF0030E00016E6F58EC0EF052
:100A6A00EBEC0BF058EC0EF067D0040E0FEC0DF027
:100A7A00040E00016E6F58EC0EF0EBEC0BF058EC24
:100A8A000EF05AD0050E0FEC0DF0050E00016E6F38
:100A9A0058EC0EF0EBEC0BF058EC0EF04DD0060EC5
:100AAA000FEC0DF0060E00016E6F58EC0EF0EBEC39
:100ABA000BF058EC0EF040D058EC0EF08F0E216E71
:100ACA00000E226E40501DEC07F0000E226E0A0E38
:100ADA00216E000E246E020E236E42EC0CF08F0E75
:100AEA002C6E000E2D6E91EC0BF026D0050E386E92
:100AFA00DCEC0FF021D000019751010AD8B47ED75F
:100B0A00030AD8B47ED7010AD8B488D7070AD8B45A
:100B1A0092D7010AD8B49CD7030AD8B4A6D7010A37
:100B2A00D8B4B0D70F0AD8B4BAD7010AD8B4C4D740
:100B3A00030AD8B4DBD7010A3B50D8B459D13A04D6
:100B4A00D8A40FD04028D8B41AD0402A00016E5138
:100B5A00010D600EF324D96E000EF420DA6EDF2A3E
:100B6A000ED04050D8B40BD0400600016E51010D92
:100B7A00600EF324D96E000EF420DA6EDF063FC051
:100B8A0013F0405075EC0DF0000E3B6E8F0E216E87
:100B9A00000E226E40501DEC07F0000E226E0A0E67
:100BAA00216E000E246E020E236E42EC0CF08F0EA4
:100BBA002C6E000E2D6E91EC0BF01AD1000E226EE7
:100BCA00010E216E000E246E010E236E42EC0CF013
:100BDA00470E2C6E080E2D6E91EC0BF000016E5133
:100BEA00010D670EF324D96E000EF420DA6EDF5081
:100BFA00A6EC0DF03B50D8B430D03A04D8A416D0A5
:100C0A0000016E51010D670EF324D96E000EF42017
:100C1A00DA6E0D0EDF601FD06E51010D670EF324E0
:100C2A00D96E000EF420DA6EDF2A15D000016E515B
:100C3A00010D670EF324D96E000EF420DA6EDF5030
:100C4A00D8B409D06E51010D670EF324D96E000E87
:100C5A00F420DA6EDF06000E3B6E89EC0FF000011D
:100C6A00976F05D0060E386EDCEC0FF0C1D000018C
:100C7A0097510A0AD8B4F6D7A9D0DCEC0FF0000EC7
:100C8A00226E010E216E000E246E010E236E42ECBE
:100C9A000CF0580E2C6E080E2D6E91EC0BF089ECB0
:100CAA000FF00001976F05D0070E386EDCEC0FF0DD
:100CBA009FD0000197510A0AD8B4F6D787D0DCEC46
:100CCA000FF0000E226E010E216E000E246E010E30
:100CDA00236E42EC0CF05F0E2C6E080E2D6E91EC1A
:100CEA000BF089EC0FF00001976F05D0080E386EF3
:100CFA00DCEC0FF07DD0000197510A0AD8B4F6D780
:100D0A0065D0DCEC0FF0000E226E010E216E000E93
:100D1A00246E010E236E42EC0CF0420E2C6E080E6D
:100D2A002D6E91EC0BF089EC0FF00001976F05D056
:100D3A00090E386EDCEC0FF05BD0000197510A0AFD
:100D4A00D8B4F6D743D0DCEC0FF0000E226E010EB9
:100D5A00216E000E246E010E236E42EC0CF0640E1E
:100D6A002C6E080E2D6E91EC0BF089EC0FF0000141
:100D7A00976F05D00A0E386EDCEC0FF039D00001FF
:100D8A0097510A0AD8B4F6D721D0DCEC0FF0000E3E
:100D9A00226E010E216E000E246E010E236E42ECAD
:100DAA000CF04F0E2C6E080E2D6E91EC0BF089ECA8
:100DBA000FF00001976F05D0040E386EDCEC0FF0CF
:100DCA0017D0000197510A0AD8B4F6D7010A10D0F1
:100DDA00000E226E010E216E000E246E010E236E8D
:100DEA0042EC0CF0340E2C6E080E2D6E91EC0BF0CA
:100DFA003850000AD8B4A3D5010AD8B4BDD5030A1D
:100E0A00D8B4C6D5060AD8B4EFD5010AD8B4D6D60E
:100E1A00030AD8B432D7010AD8B451D70F0AD8B4C2
:100E2A0070D7010AD8B48FD7030AD8B4AED7D0D7AF
:100E3A002B6E000E266E000E256E000E2A6E000E18
:100E4A00296E000E286E000E276E2B50D8A43FD0B4
:100E5A0021C0D9FF22C0DAFF200EDF6E20EE01F09A
:100E6A002150D9262250DA22200EDF6E20EE02F01F
:100E7A002150D9262250DA22200EDF6E20EE03F00E
:100E8A002150D9262250DA224D0EDF6E20EE04F0D0
:100E9A002150D9262250DA22750EDF6E20EE05F097
:100EAA002150D9262250DA22740EDF6E20EE06F087
:100EBA002150D9262250DA22650EDF6E20EE07F085
:100ECA002150D9262250DA22000EDF6E1200C00EFF
:100EDA002B18D8A40ED0000E2A6E000E296E000E12
:100EEA00286E000E276E21C0D9FF22C0DAFF200E1D
:100EFA005BD0C00E2B642DD02B50236E246A231E88
:100F0A00241E234A242AFF0E2324136E000E2420B3
:100F1A00146E000E166E020E156E95EC0CF0131E72
:100F2A00141E134A142A1F0E1324296E000E1420AD
:100F3A002A6E2B500008236EFE0E2326010E23165E
:100F4A002350256E266A21C0D9FF22C0DAFF2B0E54
:100F5A002BD0C00E2B6029D02B50236E246A231E5F
:100F6A00241E234A242AFE0E2324136E000E242054
:100F7A00146E000E166E020E156E95EC0CF0E10E54
:100F8A001324296EFF0E14202A6E2B500008236E9C
:100F9A00FE0E2326010E23162350256E266A21C033
:100FAA00D9FF22C0DAFF2D0EDF6E25502610D8B4E5
:100FBA0004D0000E286E050E03D0000E286E000E17
:100FCA00276E20EE01F02150D9262250DA22000E97
:100FDA00166E0A0E156E29C013F02AC014F095EC8D
:100FEA000CF013C01BF014C01CF0000E1E6E0A0E8B
:100FFA001D6ED7EC0CF01B50300FDF6E20EE02F0A6
:10100A002150D9262250DA2229C01BF02AC01CF00E
:10101A00000E1E6E0A0E1D6ED7EC0CF01B50300F20
:10102A00DF6E20EE03F02150D9262250DA222E0E4E
:10103A00DF6E20EE04F02150D9262250DA2227C092
:10104A001BF028C01CF0000E1E6E0A0E1D6ED7EC97
:10105A000CF01B50300FDF6E20EE05F02150D92620
:10106A002250DA22640EDF6E20EE06F02150D926D5
:10107A002250DA22420EDF6E20EE07F02150D926E6
:10108A002250DA22000EDF6E1200000E1B6E400E96
:10109A001A6ED7EC0DF0020E1B6E020E1A6ED7EC0A
:1010AA000DF0000E1B6E410E1A6ED7EC0DF0020EFB
:1010BA001B6E060E1A6ED7EC0DF0000E1B6E420E5A
:1010CA001A6ED7EC0DF0020E1B6E0E0E1A6ED7ECCE
:1010DA000DF0000E1B6E430E1A6ED7EC0DF0020EC9
:1010EA001B6E1E0E1A6ED7EC0DF0000E1B6E440E10
:1010FA001A6ED7EC0DF0020E1B6E0E0E1A6ED7EC9E
:10110A000DF0000E1B6E450E1A6ED7EC0DF0020E96
:10111A001B6E060E1A6ED7EC0DF0000E1B6E460EF5
:10112A001A6ED7EC0DF0020E1B6E020E1A6ED7EC79
:10113A000DF0000E1B6E470E1A6ED7EC0DF0020E64
:10114A001B6E000E1A6ED7EC0DF0000E1B6E480EC9
:10115A001A6ED7EC0DF0020E1B6E080E1A6ED7EC43
:10116A000DF0000E1B6E490E1A6ED7EC0DF0020E32
:10117A001B6E0C0E1A6ED7EC0DF0000E1B6E4A0E8B
:10118A001A6ED7EC0DF0020E1B6E0E0E1A6ED7EC0D
:10119A000DF0000E1B6E4B0E1A6ED7EC0DF0020E00
:1011AA001B6E0F0E1A6ED7EC0DF0000E1B6E4C0E56
:1011BA001A6ED7EC0DF0020E1B6E0E0E1A6ED7ECDD
:1011CA000DF0000E1B6E4D0E1A6ED7EC0DF0020ECE
:1011DA001B6E0C0E1A6ED7EC0DF0000E1B6E4E0E27
:1011EA001A6ED7EC0DF0020E1B6E080E1A6ED7ECB3
:1011FA000DF0000E1B6E4F0E1A6ED7EC0DF0020E9C
:10120A001B6E000E1A6ED7EC0DF0000E1B6E500E00
:10121A001A6ED7EC0DF0020E1B6E1B0E1A6ED7EC6F
:10122A000DF0000E1B6E510E1A6ED7EC0DF0020E69
:10123A001B6E1B0E1A6ED7EC0DF0000E1B6E520EB3
:10124A001A6ED7EC0DF0020E1B6E1B0E1A6ED7EC3F
:10125A000DF0000E1B6E530E1A6ED7EC0DF0020E37
:10126A001B6E1B0E1A6ED7EC0DF0000E1B6E540E81
:10127A001A6ED7EC0DF0020E1B6E1B0E1A6ED7EC0F
:10128A000DF0000E1B6E550E1A6ED7EC0DF0020E05
:10129A001B6E1B0E1A6ED7EC0DF0000E1B6E560E4F
:1012AA001A6ED7EC0DF0020E1B6E1B0E1A6ED7ECDF
:1012BA000DF0000E1B6E570E1A6ED7EC0DF0020ED3
:1012CA001B6E000E1A6ED7EC0DF0120095949592D3
:1012DA009590000E95B0010E956E000E836E83B048
:1012EA0002D0839201D0838283B202D0839401D048
:1012FA00838483A402D0838601D08396000E2E6E47
:10130A00000E2D6E000E306E010E2F6E000E326E24
:10131A00000E316E000E146E320E136E42EC0FF098
:10132A00000E146E030E136E42EC0DF0000E146ED6
:10133A000A0E136E42EC0FF0000E146E030E136EBB
:10134A0042EC0DF0000E146EC80E136E5CEC0FF03A
:10135A00000E146E030E136E42EC0DF0000E146EA6
:10136A00C80E136E5CEC0FF0000E196E020E186EAA
:10137A000BEC10F0000E196E020E186E0BEC10F04A
:10138A0031C027F032C028F0D89027362836D890B6
:10139A00273628362FC029F030C02AF0D8902936AF
:1013AA002A36D89029362A36D89029362A3627500E
:1013BA002924186E28502A20196E0BEC10F0000E02
:1013CA00196E000E186E0BEC10F0000E196E080E56
:1013DA00186E0BEC10F0000E196E000E186E0BEC66
:1013EA0010F0000E196E010E186E0BEC10F0000EC4
:1013FA00196E000E186E0BEC10F045C027F046C0AF
:10140A0028F0D8902736283600017E5127267F51AA
:10141A002822040E2724186E000E2820196E0BECC1
:10142A0010F0000E196E000E186E0BEC10F041C091
:10143A0027F042C028F0D8902736283643C029F032
:10144A0044C02AF0D89029362A36D89029362A3626
:10145A002750292628502A223550292636502A2252
:10146A00080E2924186E000E2A20196E0BEC10F0B3
:10147A0049C021F04AC022F047C023F048C024F0F6
:10148A0042EC0CF01200C28201D000F0C2B2FDD7C9
:10149A00C450146E136AC3501324156E000E142020
:1014AA00166E16BE06D0165006E1590E155CD8B057
:1014BA0002D0010E120016BE06D0165006E19A0E90
:1014CA00155CD8B002D0020E120016BE06D0165015
:1014DA0006E1DE0E155CD8B002D0030E120016BE6D
:1014EA0006D01E0E155C010E1658D8B002D0040E96
:1014FA00120016BE06D0590E155C010E1658D8B049
:10150A0002D0050E120016BE06D0960E155C010E0C
:10151A001658D8B002D0060E120016BE06D0D30E48
:10152A00155C010E1658D8B002D0070E120016BE6E
:10153A0006D00D0E155C020E1658D8B002D0080E51
:10154A00120016BE06D0490E155C020E1658D8B007
:10155A0002D0090E120016BE06D0850E155C020EC8
:10156A001658D8B002D00A0E120016BE06D0C00E07
:10157A00155C020E1658D8B002D00B0E1200000EDF
:10158A0012000600FACF01F0FBCF02F0E9CF03F018
:10159A00EACF04F0E1CF05F0E2CF06F0D9CF07F0A9
:1015AA00DACF08F0F3CF09F0F4CF0AF0F6CF0BF058
:1015BA00F7CF0CF0F8CF0DF0F5CF0EF04DC00FF0CD
:1015CA004EC010F04FC011F050C012F0F2A01FD060
:1015DA00000E81B8010E3E6E000E81B6010E3D6E00
:1015EA003E50D8A40ED03C50D8B40BD03D50D8B4FD
:1015FA0004D0010E3B6E010E03D0010E3B6E000EAD
:10160A003A6E3EC03CF081CF81FFF29002D0F2B434
:10161A00F29412C050F011C04FF010C04EF00FC03B
:10162A004DF00EC0F5FF0DC0F8FF0CC0F7FF0BC060
:10163A00F6FF0AC0F4FF09C0F3FF08C0DAFF07C0CB
:10164A00D9FF06C0E2FF05C0E1FF04C0EAFF03C0FC
:10165A00E9FF02C0FBFF01C0FAFF4D9211001AD048
:10166A008396000E146E020E136E9DEC0FF08386A5
:10167A00000E146E020E136E9DEC0FF083BEF0D7AF
:10168A008396000E146E020E136E9DEC0FF0000E80
:10169A00956E1200F00E9512839483828386000E53
:1016AA00146E020E136E9DEC0FF01CD08396000E82
:1016BA00146E020E136E9DEC0FF08386000E146EEC
:1016CA00020E136E9DEC0FF08396000E146E020E3E
:1016DA00136E9DEC0FF08386000E146E020E136ECD
:1016EA009DEC0FF083BEE2D78396000E146E020EB5
:1016FA00136E9DEC0FF08386000E146E020E136EAD
:10170A009DEC0FF08396000E146E020E136E9DEC84
:10171A000FF00F0E9516120049C083F04AC084F0EC
:10172A0047C085F048C086F0000E0001886F000EA1
:10173A00876F30D087512C242E6E88512D202F6E22
:10174A002EC0F6FF2FC0F7FFF86A070EF76403D022
:10175A000800F55005D0F6CFE9FFF7CFEAFFEF50C2
:10176A002FEC0EF033503410D8A411D04550461047
:10177A00D8B407D0000E286E010E276E08EC0FF0C1
:10178A0006D0000E286E010E276EC7EC0EF000017F
:10179A00874B882B2CC013F02DC014F006EC0EF0EA
:1017AA0013500001875D14508859D8A0C3D733500D
:1017BA003410D8A4120083C021F084C022F085C05E
:1017CA0023F086C024F042EC0CF012008B94080E31
:1017DA00176E1750D8B425D017C013F017C014F0DD
:1017EA00010E156E000E166E142A03D0D890153607
:1017FA001636142EFBD700017A5115167B51161690
:10180A00132A03D0D89016321532132EFBD78B50D9
:10181A001518FE0B15188B6E8B8200F08B9217062B
:10182A00D8D7080E186E24D018C013F018C014F0B8
:10183A00010E156E000E166E142A03D0D8901536B6
:10184A001636142EFBD700017C5115167D5116163B
:10185A00132A03D0D89016321532132EFBD78B5089
:10186A001518FE0B15188B6E8B8200F08B921806DA
:10187A001850D8A4D9D78B84120022BE1200225045
:10188A0003E12104D8A0120022BE06D0225047E16B
:10189A00110E215CD8B0120024BE1200245003E1BC
:1018AA002304D8A0120024BE06D0245038E1030E27
:1018BA00235CD8B0120021C049F022C04AF023C0EC
:1018CA0047F024C048F01BD07F0E21241A6E000E68
:1018DA0022201B6ED7EC0DF01200BF0E21241A6EC7
:1018EA00000E22201B6ED7EC0DF012007F0E212471
:1018FA001A6E000E22201B6ED7EC0DF0120023C0C8
:10190A0025F024C026F02650000AD8A4EFD7255087
:10191A00010AD8B4D9D7030AD8B4DFD7E7D7120057
:10192A00000E186E16AE06D0156C161ED8B0162A02
:10193A00010E186E14AE06D0136C141ED8B0142AF9
:10194A00010E181A000E1A6E000E196E1550161096
:10195A00D8B41CD0010E176E04D0D890153616369E
:10196A00172A16AEFAD7D89019361A361550135CBC
:10197A0016501458D8A005D01550135E1650145A94
:10198A001980D89016321532172EEDD71850D8B4C0
:10199A0004D0196C1A1ED8B01A2A19C013F01AC02A
:1019AA0014F01200000E206E1CAE06D01B6C1C1E1A
:1019BA00D8B01C2A010E206E1EAE04D01D6C1E1E4D
:1019CA00D8B01E2A1D501E10D8B418D0010E1F6E92
:1019DA0004D0D8901D361E361F2A1EAEFAD71D50C7
:1019EA001B5C1E501C58D8A004D01D501B5E1E50F4
:1019FA001C5AD8901E321D321F2EF1D72050D8B44F
:101A0A0004D01B6C1C1ED8B01C2A1BC01BF01CC0A7
:101A1A001CF01200166E000E00017B6F000E7A6F2A
:101A2A00000E7D6F000E7C6F16C013F0010E132698
:101A3A00010E146E000E156E132A03D0D8901436B8
:101A4A001536132EFBD7145000017A1315507B1349
:101A5A0016C013F0020E1326010E146E000E156E38
:101A6A00132A03D0D89014361536132EFBD71450E8
:101A7A0000017C1315507D13120013C015F014C019
:101A8A0016F0050E176E163416321532172EFBD7BE
:101A9A00010E15161546154683501518FB0B151819
:101AAA00836E13C015F014C016F0040E176E1634A8
:101ABA0016321532172EFBD7010E1516154683500E
:101ACA001518FD0B1518836E0F0E831613C015F02B
:101ADA000F0E15161538F00B8312838683961200A3
:101AEA00146E800E176E8D94000E156E070E156417
:101AFA0001D00FD08D90145017140009D8B402D019
:101B0A008D8201D08D928D80D8901730176E152A4C
:101B1A00EDD7800E176E000E166E0ED08D901350F4
:101B2A0017140009D8B402D08D8201D08D928D800D
:101B3A00D8901730176E162A070E1664EFD78D84C1
:101B4A0012002C6E000E226E010E216E000E246E03
:101B5A00020E236E42EC0CF0000E2FEC0EF0000E7B
:101B6A00286E010E276E08EC0FF0000E2D6E0D0E7A
:101B7A002D6401D013D02C502D18D8A404D0020EF5
:101B8A002FEC0EF003D02D0E2FEC0EF0000E286E67
:101B9A00010E276E08EC0FF02D2AE9D7010E2FEC63
:101BAA000EF012001AC01CF01BC01DF0040E1E6EAF
:101BBA001D341D321C321E2EFBD71CC018F01DC04E
:101BCA0019F00BEC10F00F0E1A141C6E000E1B14F9
:101BDA001D6E1AC01EF01BC01FF0040E206E1F34AB
:101BEA001F321E32202EFBD7300E1E16000E1F1675
:101BFA001C501E24186E1D501F20196E0BEC10F07D
:101C0A00120013C017F014C018F002D0174A182A8D
:101C1A0017C0F6FF18C0F7FFF86A070EF76403D07B
:101C2A000800F55005D0F6CFE9FFF7CFEAFFEF50ED
:101C3A000009D8A4EBD713C015F014C016F0151E6E
:101C4A00161E154A162A17501524136E18501620F8
:101C5A00146E12002B6E000E2B241A6E1B6A020ED3
:101C6A001B22D7EC0DF045504610D8B403D0494A90
:101C7A004A2A03D04906D8A04A0633503410D8A4B9
:101C8A00120045504610D8B407D0000E286E010E37
:101C9A00276EC7EC0EF01200000E286E010E276E9A
:101CAA0008EC0FF0120000018051D8B40FD037C0F1
:101CBA0040F081C03FF03FC013F0405075EC0DF08A
:101CCA0030EC10F0000E0001806F120040C037F0B7
:101CDA003FC081F0000E406E000E3F6E000E136E84
:101CEA00000E75EC0DF02EEC10F0010E0001806F65
:101CFA00120013C015F014C016F0090E176E163430
:101D0A0016321532172EFBD7010E15161546154633
:101D1A0083501518FB0B1518836E14C015F0166A3C
:101D2A0015BE1668010E1516154683501518FD0BBB
:101D3A001518836E13C083FF838683961200380EAC
:101D4A00F66E200EF76E000EF86E00EE41F010EE01
:101D5A000CF00900F5CFEEFFE550E150FAE100EE94
:101D6A0060F0230EEE6AE806FDE100EE33F00E0E97
:101D7A00EE6AE806FDE14D904D92000EF86E000104
:101D8A0035EF04F027C029F028C02AF0291E2A1EA0
:101D9A00294A2A2A495029264A502A222ABE1200AA
:101DAA002A5003E12904D8A012002750495E28507E
:101DBA004A5A49C021F04AC022F047C023F048C01D
:101DCA0024F042EC0CF0120041504210D8B4120038
:101DDA0043C021F044C022F0D89021362236D89050
:101DEA00213622363550212636502222080E212449
:101DFA001A6E000E22201B6ED7EC0DF0000E426EFA
:101E0A00000E416E120027504924296E28504A209C
:101E1A002A6E2ABE06D02A5013E1110E295CD8B0C8
:101E2A0012002750492628504A2249C021F04AC0A8
:101E3A0022F047C023F048C024F042EC0CF0120014
:101E4A00120043504410D8A4120041C021F042C0ED
:101E5A0022F0D890213622363550212636502222B9
:101E6A000C0E21241A6E000E22201B6ED7EC0DF0E8
:101E7A00000E446E010E436E1200000E176E000E25
:101E8A00166E0AD0070E156E7D0EE82EFED7152E99
:101E9A00FCD700F0164A172A1350165C1750800A0E
:101EAA00156E1450800A1558D8B01200EBD7000EE0
:101EBA00176E000E166E07D000F000F000F000F06A
:101ECA0000F0164A172A1350165C1750800A156E2E
:101EDA001450800A1558D8B01200EED78490849214
:101EEA0084948D908D928D940E0EC16E010EC26EE9
:101EFA00A50EC06E070EB46E000E966E938693887A
:101F0A00F180F290F286120048EC0AF0176E175030
:101F1A00D8A407D0000E1200A60EE82EFED700F0B5
:101F2A0000F048EC0AF00009D8A4F6D717501200BE
:101F3A00000E176E000E166E02D0164A172A13509C
:101F4A00165C1750800A156E1450800A1558D8B0BE
:101F5A001200F3D76D966F86CD90B190000EBD6ECC
:101F6A00000EBA6E000E826E000E8B6E000E946E1C
:101F7A00120043504410D8B41200000E1B6E080E13
:101F8A001A6ED7EC0DF0000E446E000E436E12006E
:101F9A00000E1B6E020E1A6ED7EC0DF0000E486E84
:101FAA00010E476E47C049F048C04AF01200000EC1
:101FBA001B6E010E1A6ED7EC0DF0000E486E010E64
:101FCA00476E47C049F048C04AF0120008D0A60E32
:101FDA00E82EFED700F000F01306D8A0140613501E
:101FEA001410D8B41200F3D7D59CD59AD596D584B7
:101FFA00D592D590D58EF28A120018C013F019C066
:10200A0014F07EEC0EF034EC0BF0120018C013F052
:10201A0019C014F042EC0DF034EC0BF0120092925D
:10202A0092949296929A89828984898612000100F2
:10203A000100010001000100FFFF000E00017B6F9B
:10204A00000E7A6F1200000E00017D6F000E7C6F89
:10205A0012008982120089921200898A12008994D8
:10206A00120089961200899A12008A8412008A94B0
:02207A00120052
:020000040020DA
:08000000FFFFFFFFFFFFFFFF00
:020000040030CA
:0E000000000C011EFF8081FF0FC00FE00F40BB
:00000001FF
